{
  "contractName": "Casino",
  "abi": [
    {
      "constant": true,
      "inputs": [],
      "name": "minBetPrice",
      "outputs": [
        {
          "name": "",
          "type": "uint256"
        }
      ],
      "payable": false,
      "stateMutability": "view",
      "type": "function"
    },
    {
      "constant": true,
      "inputs": [],
      "name": "noOfBets",
      "outputs": [
        {
          "name": "",
          "type": "uint256"
        }
      ],
      "payable": false,
      "stateMutability": "view",
      "type": "function"
    },
    {
      "constant": true,
      "inputs": [],
      "name": "winnerNumber",
      "outputs": [
        {
          "name": "",
          "type": "uint256"
        }
      ],
      "payable": false,
      "stateMutability": "view",
      "type": "function"
    },
    {
      "constant": true,
      "inputs": [
        {
          "name": "",
          "type": "address"
        }
      ],
      "name": "playerInfo",
      "outputs": [
        {
          "name": "betNo",
          "type": "uint256"
        },
        {
          "name": "amount",
          "type": "uint256"
        }
      ],
      "payable": false,
      "stateMutability": "view",
      "type": "function"
    },
    {
      "constant": true,
      "inputs": [],
      "name": "totalBetAmount",
      "outputs": [
        {
          "name": "",
          "type": "uint256"
        }
      ],
      "payable": false,
      "stateMutability": "view",
      "type": "function"
    },
    {
      "constant": true,
      "inputs": [],
      "name": "owner",
      "outputs": [
        {
          "name": "",
          "type": "address"
        }
      ],
      "payable": false,
      "stateMutability": "view",
      "type": "function"
    },
    {
      "constant": true,
      "inputs": [
        {
          "name": "",
          "type": "uint256"
        }
      ],
      "name": "winners",
      "outputs": [
        {
          "name": "",
          "type": "address"
        }
      ],
      "payable": false,
      "stateMutability": "view",
      "type": "function"
    },
    {
      "constant": true,
      "inputs": [],
      "name": "maxBets",
      "outputs": [
        {
          "name": "",
          "type": "uint256"
        }
      ],
      "payable": false,
      "stateMutability": "view",
      "type": "function"
    },
    {
      "constant": true,
      "inputs": [],
      "name": "winnerCount",
      "outputs": [
        {
          "name": "",
          "type": "uint256"
        }
      ],
      "payable": false,
      "stateMutability": "view",
      "type": "function"
    },
    {
      "constant": true,
      "inputs": [],
      "name": "winnerAmount",
      "outputs": [
        {
          "name": "",
          "type": "uint256"
        }
      ],
      "payable": false,
      "stateMutability": "view",
      "type": "function"
    },
    {
      "constant": true,
      "inputs": [
        {
          "name": "",
          "type": "uint256"
        }
      ],
      "name": "existingPlayers",
      "outputs": [
        {
          "name": "",
          "type": "address"
        }
      ],
      "payable": false,
      "stateMutability": "view",
      "type": "function"
    },
    {
      "inputs": [],
      "payable": false,
      "stateMutability": "nonpayable",
      "type": "constructor"
    },
    {
      "constant": true,
      "inputs": [
        {
          "name": "_player",
          "type": "address"
        }
      ],
      "name": "checkIfPlayerExists",
      "outputs": [
        {
          "name": "",
          "type": "bool"
        }
      ],
      "payable": false,
      "stateMutability": "view",
      "type": "function"
    },
    {
      "constant": false,
      "inputs": [
        {
          "name": "_num",
          "type": "uint256"
        }
      ],
      "name": "bet",
      "outputs": [],
      "payable": true,
      "stateMutability": "payable",
      "type": "function"
    },
    {
      "constant": false,
      "inputs": [],
      "name": "generateWinner",
      "outputs": [],
      "payable": false,
      "stateMutability": "nonpayable",
      "type": "function"
    },
    {
      "constant": false,
      "inputs": [
        {
          "name": "_num",
          "type": "uint256"
        }
      ],
      "name": "distributePrizes",
      "outputs": [],
      "payable": true,
      "stateMutability": "payable",
      "type": "function"
    }
  ],
  "bytecode": "0x6080604052600180556002805534801561001857600080fd5b50336000806101000a81548173ffffffffffffffffffffffffffffffffffffffff021916908373ffffffffffffffffffffffffffffffffffffffff160217905550610a23806100686000396000f3fe6080604052600436106100e85760003560e01c80636ca3fc3b1161008a578063a61d0aed11610059578063a61d0aed146103b3578063caa02e08146103de578063cae9ab7a14610409578063d699055714610434576100e8565b80636ca3fc3b146102855780637365870b146102b35780638da5cb5b146102e1578063a2fb117514610338576100e8565b80633d89764c116100c65780633d89764c146101985780633f54b033146101c35780634b114691146101ee578063613f45941461025a576100e8565b8063188af657146100ed5780631f897b6e14610104578063229f4caf1461016d575b600080fd5b3480156100f957600080fd5b506101026104af565b005b34801561011057600080fd5b506101536004803603602081101561012757600080fd5b81019080803573ffffffffffffffffffffffffffffffffffffffff1690602001909291905050506104d0565b604051808215151515815260200191505060405180910390f35b34801561017957600080fd5b50610182610572565b6040518082815260200191505060405180910390f35b3480156101a457600080fd5b506101ad610578565b6040518082815260200191505060405180910390f35b3480156101cf57600080fd5b506101d861057e565b6040518082815260200191505060405180910390f35b3480156101fa57600080fd5b5061023d6004803603602081101561021157600080fd5b81019080803573ffffffffffffffffffffffffffffffffffffffff169060200190929190505050610584565b604051808381526020018281526020019250505060405180910390f35b34801561026657600080fd5b5061026f6105a8565b6040518082815260200191505060405180910390f35b6102b16004803603602081101561029b57600080fd5b81019080803590602001909291905050506105ae565b005b6102df600480360360208110156102c957600080fd5b81019080803590602001909291905050506107b0565b005b3480156102ed57600080fd5b506102f66108f7565b604051808273ffffffffffffffffffffffffffffffffffffffff1673ffffffffffffffffffffffffffffffffffffffff16815260200191505060405180910390f35b34801561034457600080fd5b506103716004803603602081101561035b57600080fd5b810190808035906020019092919050505061091c565b604051808273ffffffffffffffffffffffffffffffffffffffff1673ffffffffffffffffffffffffffffffffffffffff16815260200191505060405180910390f35b3480156103bf57600080fd5b506103c8610958565b6040518082815260200191505060405180910390f35b3480156103ea57600080fd5b506103f361095e565b6040518082815260200191505060405180910390f35b34801561041557600080fd5b5061041e610964565b6040518082815260200191505060405180910390f35b34801561044057600080fd5b5061046d6004803603602081101561045757600080fd5b810190808035906020019092919050505061096a565b604051808273ffffffffffffffffffffffffffffffffffffffff1673ffffffffffffffffffffffffffffffffffffffff16815260200191505060405180910390f35b6001600a43816104bb57fe5b06016005819055506104ce6005546105ae565b565b600080600090505b600980549050811015610567578273ffffffffffffffffffffffffffffffffffffffff166009828154811061050957fe5b9060005260206000200160009054906101000a900473ffffffffffffffffffffffffffffffffffffffff1673ffffffffffffffffffffffffffffffffffffffff16141561055a57600191505061056d565b80806001019150506104d8565b50600090505b919050565b60015481565b60035481565b60055481565b600a6020528060005260406000206000915090508060000154908060010154905082565b60045481565b60008090505b6009805490508110156107885781600a6000600984815481106105d357fe5b9060005260206000200160009054906101000a900473ffffffffffffffffffffffffffffffffffffffff1673ffffffffffffffffffffffffffffffffffffffff1673ffffffffffffffffffffffffffffffffffffffff1681526020019081526020016000206000015414156106f25760076000815480929190600101919050555060066009828154811061066357fe5b9060005260206000200160009054906101000a900473ffffffffffffffffffffffffffffffffffffffff1690806001815401808255809150509060018203906000526020600020016000909192909190916101000a81548173ffffffffffffffffffffffffffffffffffffffff021916908373ffffffffffffffffffffffffffffffffffffffff160217905550505b600a60006009838154811061070357fe5b9060005260206000200160009054906101000a900473ffffffffffffffffffffffffffffffffffffffff1673ffffffffffffffffffffffffffffffffffffffff1673ffffffffffffffffffffffffffffffffffffffff1681526020019081526020016000206000808201600090556001820160009055505080806001019150506105b4565b50600060098161079891906109a6565b50600754600454816107a657fe5b0460088190555050565b600181101580156107c25750600a8111155b6107cb57600080fd5b6001543410156107da57600080fd5b6107e3336104d0565b156107ed57600080fd5b604051806040016040528082815260200134815250600a60003373ffffffffffffffffffffffffffffffffffffffff1673ffffffffffffffffffffffffffffffffffffffff16815260200190815260200160002060008201518160000155602082015181600101559050506003600081548092919060010191905055503460046000828254019250508190555060093390806001815401808255809150509060018203906000526020600020016000909192909190916101000a81548173ffffffffffffffffffffffffffffffffffffffff021916908373ffffffffffffffffffffffffffffffffffffffff16021790555050600254600354106108f4576108f36104af565b5b50565b6000809054906101000a900473ffffffffffffffffffffffffffffffffffffffff1681565b6006818154811061092957fe5b906000526020600020016000915054906101000a900473ffffffffffffffffffffffffffffffffffffffff1681565b60025481565b60075481565b60085481565b6009818154811061097757fe5b906000526020600020016000915054906101000a900473ffffffffffffffffffffffffffffffffffffffff1681565b8154818355818111156109cd578183600052602060002091820191016109cc91906109d2565b5b505050565b6109f491905b808211156109f05760008160009055506001016109d8565b5090565b9056fea165627a7a723058205da3bc235e221fbbbadc098f1794a9b2c7f345b658bd95a5b8108155c93073580029",
  "source": "pragma solidity ^0.5.0;\r\n\r\ncontract Casino {\r\n\r\n    address public owner;\r\n    uint public minBetPrice = 1;\r\n    uint public maxBets = 2;\r\n    uint public noOfBets;\r\n    uint public totalBetAmount;\r\n    uint public winnerNumber;\r\n\r\n    address payable[] public winners;\r\n    uint public winnerCount;\r\n    uint public winnerAmount;\r\n    address payable[] public existingPlayers;\r\n\r\n    \r\n\r\n    struct players{\r\n        uint betNo;\r\n        uint amount;\r\n    }\r\n\r\n    mapping(address => players) public playerInfo;\r\n\r\n    constructor() public {\r\n       owner = msg.sender;\r\n    }\r\n\r\n    function checkIfPlayerExists(address _player) public view returns (bool) {\r\n        for(uint i = 0; i < existingPlayers.length; i++) {\r\n            if(existingPlayers[i] == _player) {\r\n                return true;\r\n            }\r\n        }\r\n        return false;\r\n    }\r\n    function bet(uint _num)  public payable  {\r\n\r\n        require(_num >=1 && _num <=10);\r\n        require(msg.value >= minBetPrice);\r\n        require(!checkIfPlayerExists(msg.sender));\r\n        playerInfo[msg.sender] = players(_num, msg.value);\r\n        noOfBets ++;\r\n        totalBetAmount += msg.value;\r\n        existingPlayers.push(msg.sender);\r\n        if(noOfBets >= maxBets){\r\n            generateWinner();\r\n        } \r\n        \r\n    }\r\n\r\n    function generateWinner() public {\r\n        // require(noOfBets == maxBets);\r\n        winnerNumber= block.number % 10 + 1;\r\n        distributePrizes(winnerNumber);\r\n    }\r\n\r\n    function distributePrizes(uint _num) public payable {\r\n         for(uint i = 0; i < existingPlayers.length; i++) {\r\n             if(playerInfo[existingPlayers[i]].betNo == _num) {\r\n                 winnerCount ++;\r\n                 winners.push(existingPlayers[i]);\r\n             }\r\n             delete playerInfo[existingPlayers[i]];\r\n         }\r\n         existingPlayers.length = 0;\r\n         winnerAmount = totalBetAmount / winnerCount;\r\n        //  for (uint i = 0; i < winners.length; i++) {\r\n             \r\n        //     //  winners[i].transfer(winnerAmount);\r\n        //  }\r\n    }\r\n\r\n}",
  "sourcePath": "F:/Eth Wallet/Casino Dapp/marketplace/src/contracts/Casino.sol",
  "compiler": {
    "name": "solc",
    "version": "0.5.8+commit.23d335f2.Emscripten.clang"
  },
  "schemaVersion": "3.0.10",
  "updatedAt": "2019-12-01T11:26:23.278Z",
  "devdoc": {
    "methods": {}
  },
  "userdoc": {
    "methods": {}
  }
}